{
  "contractName": "EthPriceOracle",
  "abi": [
    {
      "inputs": [
        {
          "internalType": "address",
          "name": "_owner",
          "type": "address"
        }
      ],
      "stateMutability": "nonpayable",
      "type": "constructor"
    },
    {
      "anonymous": false,
      "inputs": [
        {
          "indexed": false,
          "internalType": "address",
          "name": "oracleAddress",
          "type": "address"
        }
      ],
      "name": "AddOracleEvent",
      "type": "event"
    },
    {
      "anonymous": false,
      "inputs": [
        {
          "indexed": false,
          "internalType": "address",
          "name": "callerAddress",
          "type": "address"
        },
        {
          "indexed": false,
          "internalType": "uint256",
          "name": "id",
          "type": "uint256"
        }
      ],
      "name": "GetLatestEthPriceEvent",
      "type": "event"
    },
    {
      "anonymous": false,
      "inputs": [
        {
          "indexed": true,
          "internalType": "bytes32",
          "name": "role",
          "type": "bytes32"
        },
        {
          "indexed": true,
          "internalType": "bytes32",
          "name": "previousAdminRole",
          "type": "bytes32"
        },
        {
          "indexed": true,
          "internalType": "bytes32",
          "name": "newAdminRole",
          "type": "bytes32"
        }
      ],
      "name": "RoleAdminChanged",
      "type": "event"
    },
    {
      "anonymous": false,
      "inputs": [
        {
          "indexed": true,
          "internalType": "bytes32",
          "name": "role",
          "type": "bytes32"
        },
        {
          "indexed": true,
          "internalType": "address",
          "name": "account",
          "type": "address"
        },
        {
          "indexed": true,
          "internalType": "address",
          "name": "sender",
          "type": "address"
        }
      ],
      "name": "RoleGranted",
      "type": "event"
    },
    {
      "anonymous": false,
      "inputs": [
        {
          "indexed": true,
          "internalType": "bytes32",
          "name": "role",
          "type": "bytes32"
        },
        {
          "indexed": true,
          "internalType": "address",
          "name": "account",
          "type": "address"
        },
        {
          "indexed": true,
          "internalType": "address",
          "name": "sender",
          "type": "address"
        }
      ],
      "name": "RoleRevoked",
      "type": "event"
    },
    {
      "anonymous": false,
      "inputs": [
        {
          "indexed": false,
          "internalType": "uint256",
          "name": "ethPrice",
          "type": "uint256"
        },
        {
          "indexed": false,
          "internalType": "address",
          "name": "callerAddress",
          "type": "address"
        }
      ],
      "name": "SetLatestEthPriceEvent",
      "type": "event"
    },
    {
      "inputs": [],
      "name": "DEFAULT_ADMIN_ROLE",
      "outputs": [
        {
          "internalType": "bytes32",
          "name": "",
          "type": "bytes32"
        }
      ],
      "stateMutability": "view",
      "type": "function"
    },
    {
      "inputs": [],
      "name": "ORACLE_ROLE",
      "outputs": [
        {
          "internalType": "bytes32",
          "name": "",
          "type": "bytes32"
        }
      ],
      "stateMutability": "view",
      "type": "function"
    },
    {
      "inputs": [
        {
          "internalType": "bytes32",
          "name": "role",
          "type": "bytes32"
        }
      ],
      "name": "getRoleAdmin",
      "outputs": [
        {
          "internalType": "bytes32",
          "name": "",
          "type": "bytes32"
        }
      ],
      "stateMutability": "view",
      "type": "function"
    },
    {
      "inputs": [
        {
          "internalType": "bytes32",
          "name": "role",
          "type": "bytes32"
        },
        {
          "internalType": "address",
          "name": "account",
          "type": "address"
        }
      ],
      "name": "grantRole",
      "outputs": [],
      "stateMutability": "nonpayable",
      "type": "function"
    },
    {
      "inputs": [
        {
          "internalType": "bytes32",
          "name": "role",
          "type": "bytes32"
        },
        {
          "internalType": "address",
          "name": "account",
          "type": "address"
        }
      ],
      "name": "hasRole",
      "outputs": [
        {
          "internalType": "bool",
          "name": "",
          "type": "bool"
        }
      ],
      "stateMutability": "view",
      "type": "function"
    },
    {
      "inputs": [
        {
          "internalType": "bytes32",
          "name": "role",
          "type": "bytes32"
        },
        {
          "internalType": "address",
          "name": "account",
          "type": "address"
        }
      ],
      "name": "renounceRole",
      "outputs": [],
      "stateMutability": "nonpayable",
      "type": "function"
    },
    {
      "inputs": [
        {
          "internalType": "bytes32",
          "name": "role",
          "type": "bytes32"
        },
        {
          "internalType": "address",
          "name": "account",
          "type": "address"
        }
      ],
      "name": "revokeRole",
      "outputs": [],
      "stateMutability": "nonpayable",
      "type": "function"
    },
    {
      "inputs": [
        {
          "internalType": "bytes4",
          "name": "interfaceId",
          "type": "bytes4"
        }
      ],
      "name": "supportsInterface",
      "outputs": [
        {
          "internalType": "bool",
          "name": "",
          "type": "bool"
        }
      ],
      "stateMutability": "view",
      "type": "function"
    },
    {
      "inputs": [],
      "name": "getLatestEthPrice",
      "outputs": [
        {
          "internalType": "uint256",
          "name": "",
          "type": "uint256"
        }
      ],
      "stateMutability": "nonpayable",
      "type": "function"
    },
    {
      "inputs": [
        {
          "internalType": "uint256",
          "name": "_ethPrice",
          "type": "uint256"
        },
        {
          "internalType": "address",
          "name": "_callerAddress",
          "type": "address"
        },
        {
          "internalType": "uint256",
          "name": "_id",
          "type": "uint256"
        }
      ],
      "name": "setLatestEthPrice",
      "outputs": [],
      "stateMutability": "nonpayable",
      "type": "function"
    },
    {
      "inputs": [
        {
          "internalType": "address",
          "name": "_oracle",
          "type": "address"
        }
      ],
      "name": "addOracle",
      "outputs": [],
      "stateMutability": "nonpayable",
      "type": "function"
    },
    {
      "inputs": [
        {
          "internalType": "address",
          "name": "_oracle",
          "type": "address"
        }
      ],
      "name": "removeOracle",
      "outputs": [],
      "stateMutability": "nonpayable",
      "type": "function"
    }
  ],
  "bytecode": "0x608060405260006001556103e8600255600060055560006006553480156200002657600080fd5b5060405162001c4738038062001c4783398181016040528101906200004c9190620002be565b620000616000801b82620000ac60201b60201c565b620000a57f68e79a7bf1e0bc45d0a330c573bc367f9cf464fd326078812f301165fbda4ef18260601b6bffffffffffffffffffffffff1916620000c260201b60201c565b5062000338565b620000be82826200012560201b60201c565b5050565b6000620000d5836200021660201b60201c565b905081600080858152602001908152602001600020600101819055508181847fbd79b86ffe0ab8e8776151514217cd7cacd52c909f66475c3af44e129f0b00ff60405160405180910390a4505050565b6200013782826200023560201b60201c565b6200021257600160008084815260200190815260200160002060000160008373ffffffffffffffffffffffffffffffffffffffff1673ffffffffffffffffffffffffffffffffffffffff16815260200190815260200160002060006101000a81548160ff021916908315150217905550620001b76200029f60201b60201c565b73ffffffffffffffffffffffffffffffffffffffff168173ffffffffffffffffffffffffffffffffffffffff16837f2f8788117e7eff1d82e926ec794901d17c78024a50270940304540a733656f0d60405160405180910390a45b5050565b6000806000838152602001908152602001600020600101549050919050565b600080600084815260200190815260200160002060000160008373ffffffffffffffffffffffffffffffffffffffff1673ffffffffffffffffffffffffffffffffffffffff16815260200190815260200160002060009054906101000a900460ff16905092915050565b600033905090565b600081519050620002b8816200031e565b92915050565b600060208284031215620002d157600080fd5b6000620002e184828501620002a7565b91505092915050565b6000620002f782620002fe565b9050919050565b600073ffffffffffffffffffffffffffffffffffffffff82169050919050565b6200032981620002ea565b81146200033557600080fd5b50565b6118ff80620003486000396000f3fe608060405234801561001057600080fd5b50600436106100b45760003560e01c806391d148541161007157806391d148541461018d578063a217fddf146101bd578063cf642f1f146101db578063d547741f146101f7578063df5dd1a514610213578063fdc85fc41461022f576100b4565b806301ffc9a7146100b957806307e2cea5146100e9578063248a9ca3146101075780632f2ff15d1461013757806330c0b9ec1461015357806336568abe14610171575b600080fd5b6100d360048036038101906100ce91906110c9565b61024b565b6040516100e09190611441565b60405180910390f35b6100f16102c5565b6040516100fe919061145c565b60405180910390f35b610121600480360381019061011c9190611064565b6102e9565b60405161012e919061145c565b60405180910390f35b610151600480360381019061014c919061108d565b610308565b005b61015b610331565b60405161016891906114f9565b60405180910390f35b61018b6004803603810190610186919061108d565b6103f8565b005b6101a760048036038101906101a2919061108d565b61047b565b6040516101b49190611441565b60405180910390f35b6101c56104e5565b6040516101d2919061145c565b60405180910390f35b6101f560048036038101906101f091906110f2565b6104ec565b005b610211600480360381019061020c919061108d565b610869565b005b61022d6004803603810190610228919061103b565b610892565b005b6102496004803603810190610244919061103b565b6108d7565b005b60007f7965db0b000000000000000000000000000000000000000000000000000000007bffffffffffffffffffffffffffffffffffffffffffffffffffffffff1916827bffffffffffffffffffffffffffffffffffffffffffffffffffffffff191614806102be57506102bd82610913565b5b9050919050565b7f68e79a7bf1e0bc45d0a330c573bc367f9cf464fd326078812f301165fbda4ef181565b6000806000838152602001908152602001600020600101549050919050565b610311826102e9565b6103228161031d61097d565b610985565b61032c8383610a22565b505050565b60006001600081548092919061034690611749565b919050555060006002544233600154604051602001610367939291906113db565b6040516020818303038152906040528051906020012060001c61038a91906117c0565b905060016003600083815260200190815260200160002060006101000a81548160ff0219169083151502179055507f3d50a0c24e97813f35595d2f1f37dbf421d5e97f37abd4e222853e9b9c82c8d533826040516103e9929190611418565b60405180910390a18091505090565b61040061097d565b73ffffffffffffffffffffffffffffffffffffffff168173ffffffffffffffffffffffffffffffffffffffff161461046d576040517f08c379a0000000000000000000000000000000000000000000000000000000008152600401610464906114b9565b60405180910390fd5b6104778282610b02565b5050565b600080600084815260200190815260200160002060000160008373ffffffffffffffffffffffffffffffffffffffff1673ffffffffffffffffffffffffffffffffffffffff16815260200190815260200160002060009054906101000a900460ff16905092915050565b6000801b81565b7f68e79a7bf1e0bc45d0a330c573bc367f9cf464fd326078812f301165fbda4ef161051e8161051961097d565b610985565b6003600083815260200190815260200160002060009054906101000a900460ff1661057e576040517f08c379a0000000000000000000000000000000000000000000000000000000008152600401610575906114d9565b60405180910390fd5b610586610f09565b60405180606001604052803373ffffffffffffffffffffffffffffffffffffffff1681526020018573ffffffffffffffffffffffffffffffffffffffff1681526020018681525090506004600084815260200190815260200160002081908060018154018082558091505060019003906000526020600020906003020160009091909190915060008201518160000160006101000a81548173ffffffffffffffffffffffffffffffffffffffff021916908373ffffffffffffffffffffffffffffffffffffffff16021790555060208201518160010160006101000a81548173ffffffffffffffffffffffffffffffffffffffff021916908373ffffffffffffffffffffffffffffffffffffffff160217905550604082015181600201555050600060046000858152602001908152602001600020805490509050600654811415610861576000805b8281101561075b57610746600460008881526020019081526020016000208281548110610725577f4e487b7100000000000000000000000000000000000000000000000000000000600052603260045260246000fd5b90600052602060002090600302016002015483610be390919063ffffffff16565b9150808061075390611749565b9150506106cf565b5061076f8282610bf990919063ffffffff16565b90506003600086815260200190815260200160002060006101000a81549060ff02191690556004600086815260200190815260200160002060006107b39190610f56565b60008690508073ffffffffffffffffffffffffffffffffffffffff1663b5d73ba483886040518363ffffffff1660e01b81526004016107f392919061153d565b600060405180830381600087803b15801561080d57600080fd5b505af1158015610821573d6000803e3d6000fd5b505050507f91b860381268a473101de3379abbb70abf7ea6c9d1735cf58b9816479ff3b7278288604051610856929190611514565b60405180910390a150505b505050505050565b610872826102e9565b6108838161087e61097d565b610985565b61088d8383610b02565b505050565b6108bc7f68e79a7bf1e0bc45d0a330c573bc367f9cf464fd326078812f301165fbda4ef182610308565b600560008154809291906108cf90611749565b919050555050565b6001600554116108e657600080fd5b6109107f68e79a7bf1e0bc45d0a330c573bc367f9cf464fd326078812f301165fbda4ef182610869565b50565b60007f01ffc9a7000000000000000000000000000000000000000000000000000000007bffffffffffffffffffffffffffffffffffffffffffffffffffffffff1916827bffffffffffffffffffffffffffffffffffffffffffffffffffffffff1916149050919050565b600033905090565b61098f828261047b565b610a1e576109b48173ffffffffffffffffffffffffffffffffffffffff166014610c0f565b6109c28360001c6020610c0f565b6040516020016109d39291906113a1565b6040516020818303038152906040526040517f08c379a0000000000000000000000000000000000000000000000000000000008152600401610a159190611477565b60405180910390fd5b5050565b610a2c828261047b565b610afe57600160008084815260200190815260200160002060000160008373ffffffffffffffffffffffffffffffffffffffff1673ffffffffffffffffffffffffffffffffffffffff16815260200190815260200160002060006101000a81548160ff021916908315150217905550610aa361097d565b73ffffffffffffffffffffffffffffffffffffffff168173ffffffffffffffffffffffffffffffffffffffff16837f2f8788117e7eff1d82e926ec794901d17c78024a50270940304540a733656f0d60405160405180910390a45b5050565b610b0c828261047b565b15610bdf57600080600084815260200190815260200160002060000160008373ffffffffffffffffffffffffffffffffffffffff1673ffffffffffffffffffffffffffffffffffffffff16815260200190815260200160002060006101000a81548160ff021916908315150217905550610b8461097d565b73ffffffffffffffffffffffffffffffffffffffff168173ffffffffffffffffffffffffffffffffffffffff16837ff6391f5c32d9c69d2a47ea670b442974b53935d1edc7fd64eb21e047a839171b60405160405180910390a45b5050565b60008183610bf1919061158d565b905092915050565b60008183610c0791906115e3565b905092915050565b606060006002836002610c229190611614565b610c2c919061158d565b67ffffffffffffffff811115610c6b577f4e487b7100000000000000000000000000000000000000000000000000000000600052604160045260246000fd5b6040519080825280601f01601f191660200182016040528015610c9d5781602001600182028036833780820191505090505b5090507f300000000000000000000000000000000000000000000000000000000000000081600081518110610cfb577f4e487b7100000000000000000000000000000000000000000000000000000000600052603260045260246000fd5b60200101907effffffffffffffffffffffffffffffffffffffffffffffffffffffffffffff1916908160001a9053507f780000000000000000000000000000000000000000000000000000000000000081600181518110610d85577f4e487b7100000000000000000000000000000000000000000000000000000000600052603260045260246000fd5b60200101907effffffffffffffffffffffffffffffffffffffffffffffffffffffffffffff1916908160001a90535060006001846002610dc59190611614565b610dcf919061158d565b90505b6001811115610ebb577f3031323334353637383961626364656600000000000000000000000000000000600f861660108110610e37577f4e487b7100000000000000000000000000000000000000000000000000000000600052603260045260246000fd5b1a60f81b828281518110610e74577f4e487b7100000000000000000000000000000000000000000000000000000000600052603260045260246000fd5b60200101907effffffffffffffffffffffffffffffffffffffffffffffffffffffffffffff1916908160001a905350600485901c945080610eb49061171f565b9050610dd2565b5060008414610eff576040517f08c379a0000000000000000000000000000000000000000000000000000000008152600401610ef690611499565b60405180910390fd5b8091505092915050565b6040518060600160405280600073ffffffffffffffffffffffffffffffffffffffff168152602001600073ffffffffffffffffffffffffffffffffffffffff168152602001600081525090565b5080546000825560030290600052602060002090810190610f779190610f7a565b50565b5b80821115610fe357600080820160006101000a81549073ffffffffffffffffffffffffffffffffffffffff02191690556001820160006101000a81549073ffffffffffffffffffffffffffffffffffffffff0219169055600282016000905550600301610f7b565b5090565b600081359050610ff68161186d565b92915050565b60008135905061100b81611884565b92915050565b6000813590506110208161189b565b92915050565b600081359050611035816118b2565b92915050565b60006020828403121561104d57600080fd5b600061105b84828501610fe7565b91505092915050565b60006020828403121561107657600080fd5b600061108484828501610ffc565b91505092915050565b600080604083850312156110a057600080fd5b60006110ae85828601610ffc565b92505060206110bf85828601610fe7565b9150509250929050565b6000602082840312156110db57600080fd5b60006110e984828501611011565b91505092915050565b60008060006060848603121561110757600080fd5b600061111586828701611026565b935050602061112686828701610fe7565b925050604061113786828701611026565b9150509250925092565b61114a8161166e565b82525050565b61116161115c8261166e565b611792565b82525050565b61117081611680565b82525050565b61117f8161168c565b82525050565b600061119082611566565b61119a8185611571565b93506111aa8185602086016116ec565b6111b38161184f565b840191505092915050565b60006111c982611566565b6111d38185611582565b93506111e38185602086016116ec565b80840191505092915050565b60006111fc602083611571565b91507f537472696e67733a20686578206c656e67746820696e73756666696369656e746000830152602082019050919050565b600061123c601783611582565b91507f416363657373436f6e74726f6c3a206163636f756e74200000000000000000006000830152601782019050919050565b600061127c601183611582565b91507f206973206d697373696e6720726f6c65200000000000000000000000000000006000830152601182019050919050565b60006112bc602f83611571565b91507f416363657373436f6e74726f6c3a2063616e206f6e6c792072656e6f756e636560008301527f20726f6c657320666f722073656c6600000000000000000000000000000000006020830152604082019050919050565b6000611322602783611571565b91507f546869732072657175657374206973206e6f7420696e206d792070656e64696e60008301527f67206c6973742e000000000000000000000000000000000000000000000000006020830152604082019050919050565b611384816116e2565b82525050565b61139b611396826116e2565b6117b6565b82525050565b60006113ac8261122f565b91506113b882856111be565b91506113c38261126f565b91506113cf82846111be565b91508190509392505050565b60006113e7828661138a565b6020820191506113f78285611150565b601482019150611407828461138a565b602082019150819050949350505050565b600060408201905061142d6000830185611141565b61143a602083018461137b565b9392505050565b60006020820190506114566000830184611167565b92915050565b60006020820190506114716000830184611176565b92915050565b600060208201905081810360008301526114918184611185565b905092915050565b600060208201905081810360008301526114b2816111ef565b9050919050565b600060208201905081810360008301526114d2816112af565b9050919050565b600060208201905081810360008301526114f281611315565b9050919050565b600060208201905061150e600083018461137b565b92915050565b6000604082019050611529600083018561137b565b6115366020830184611141565b9392505050565b6000604082019050611552600083018561137b565b61155f602083018461137b565b9392505050565b600081519050919050565b600082825260208201905092915050565b600081905092915050565b6000611598826116e2565b91506115a3836116e2565b9250827fffffffffffffffffffffffffffffffffffffffffffffffffffffffffffffffff038211156115d8576115d76117f1565b5b828201905092915050565b60006115ee826116e2565b91506115f9836116e2565b92508261160957611608611820565b5b828204905092915050565b600061161f826116e2565b915061162a836116e2565b9250817fffffffffffffffffffffffffffffffffffffffffffffffffffffffffffffffff0483118215151615611663576116626117f1565b5b828202905092915050565b6000611679826116c2565b9050919050565b60008115159050919050565b6000819050919050565b60007fffffffff0000000000000000000000000000000000000000000000000000000082169050919050565b600073ffffffffffffffffffffffffffffffffffffffff82169050919050565b6000819050919050565b60005b8381101561170a5780820151818401526020810190506116ef565b83811115611719576000848401525b50505050565b600061172a826116e2565b9150600082141561173e5761173d6117f1565b5b600182039050919050565b6000611754826116e2565b91507fffffffffffffffffffffffffffffffffffffffffffffffffffffffffffffffff821415611787576117866117f1565b5b600182019050919050565b600061179d826117a4565b9050919050565b60006117af82611860565b9050919050565b6000819050919050565b60006117cb826116e2565b91506117d6836116e2565b9250826117e6576117e5611820565b5b828206905092915050565b7f4e487b7100000000000000000000000000000000000000000000000000000000600052601160045260246000fd5b7f4e487b7100000000000000000000000000000000000000000000000000000000600052601260045260246000fd5b6000601f19601f8301169050919050565b60008160601b9050919050565b6118768161166e565b811461188157600080fd5b50565b61188d8161168c565b811461189857600080fd5b50565b6118a481611696565b81146118af57600080fd5b50565b6118bb816116e2565b81146118c657600080fd5b5056fea26469706673582212203bf8ad04130891c35d868b61ba88b576c5fe553e1e15e5ea94e3ca1d2b7ecf2064736f6c63430008000033",
  "immutableReferences": {},
  "source": "// SPDX-License-Identifier: MIT\npragma solidity >=0.4.22 <0.9.0;\n// import \"openzeppelin-solidity/contracts/access/Ownable.sol\";\nimport \"openzeppelin-solidity/contracts/access/AccessControl.sol\";\nimport \"./CallerContractInterface.sol\";\nimport \"openzeppelin-solidity/contracts/utils/math/SafeMath.sol\";\n\ncontract EthPriceOracle is AccessControl {\n  using SafeMath for uint256;\n\n  struct Response {\n    address oracleAddress;\n    address callerAddress;\n    uint256 ethPrice;\n  }\n\n  uint private randNonce = 0;\n  uint private modulus = 1000;\n  mapping(uint256 => bool) pendingRequests;\n  mapping(uint256 => Response[]) requestsIdToResponse;\n  event GetLatestEthPriceEvent(address callerAddress, uint id);\n  event SetLatestEthPriceEvent(uint256 ethPrice, address callerAddress);\n\n  uint noOfOracles = 0;\n  uint THRESHOLD = 0;\n  bytes32 public constant ORACLE_ROLE = keccak256('ORACLE_ROLE');\n\n  event AddOracleEvent(address oracleAddress);\n\n  constructor(address _owner) {\n    _setupRole(DEFAULT_ADMIN_ROLE, _owner);\n    _setRoleAdmin(ORACLE_ROLE, bytes32(bytes20(_owner)));\n  }\n\n  function getLatestEthPrice() public returns(uint256) {\n    randNonce++;\n    uint id = uint(keccak256(abi.encodePacked(block.timestamp, msg.sender, randNonce))) % modulus;\n    pendingRequests[id] = true;\n    emit GetLatestEthPriceEvent(msg.sender, id);\n    return id;\n  }\n\n  function setLatestEthPrice(uint256 _ethPrice, address _callerAddress, uint256 _id) public onlyRole(ORACLE_ROLE) {\n    require(pendingRequests[_id], \"This request is not in my pending list.\");\n    Response memory resp;\n    resp = Response(msg.sender, _callerAddress, _ethPrice);\n    requestsIdToResponse[_id].push(resp);\n    uint noOfResponses = requestsIdToResponse[_id].length;\n    if(noOfResponses == THRESHOLD) {\n      uint computedEthPrice = 0;\n      for(uint i = 0; i < noOfResponses; i++) {\n        computedEthPrice = computedEthPrice.add(requestsIdToResponse[_id][i].ethPrice);\n      }\n      computedEthPrice = computedEthPrice.div(noOfResponses);\n      delete pendingRequests[_id];\n      delete requestsIdToResponse[_id];\n      CallerContractInterface callerContractInstance;\n      callerContractInstance = CallerContractInterface(_callerAddress);\n      callerContractInstance.callback(computedEthPrice, _id);\n      emit SetLatestEthPriceEvent(computedEthPrice, _callerAddress);\n    }\n  }\n\n  function addOracle(address _oracle) public {\n    grantRole(ORACLE_ROLE, _oracle);\n    noOfOracles++;\n  }\n\n  function removeOracle(address _oracle) public {\n    require(noOfOracles > 1);\n    revokeRole(ORACLE_ROLE, _oracle);\n  }\n\n}",
  "sourcePath": "/Users/shadrach/Documents/tutorials/shadrach/blockchain/EthPriceOracle/oracle/contracts/EthPriceOracle.sol",
  "compiler": {
    "name": "solc",
    "version": "0.8.0+commit.c7dfd78e.Emscripten.clang"
  },
  "schemaVersion": "3.4.3",
  "updatedAt": "2021-10-02T02:49:56.400Z",
  "devdoc": {
    "kind": "dev",
    "methods": {
      "getRoleAdmin(bytes32)": {
        "details": "Returns the admin role that controls `role`. See {grantRole} and {revokeRole}. To change a role's admin, use {_setRoleAdmin}."
      },
      "grantRole(bytes32,address)": {
        "details": "Grants `role` to `account`. If `account` had not been already granted `role`, emits a {RoleGranted} event. Requirements: - the caller must have ``role``'s admin role."
      },
      "hasRole(bytes32,address)": {
        "details": "Returns `true` if `account` has been granted `role`."
      },
      "renounceRole(bytes32,address)": {
        "details": "Revokes `role` from the calling account. Roles are often managed via {grantRole} and {revokeRole}: this function's purpose is to provide a mechanism for accounts to lose their privileges if they are compromised (such as when a trusted device is misplaced). If the calling account had been granted `role`, emits a {RoleRevoked} event. Requirements: - the caller must be `account`."
      },
      "revokeRole(bytes32,address)": {
        "details": "Revokes `role` from `account`. If `account` had been granted `role`, emits a {RoleRevoked} event. Requirements: - the caller must have ``role``'s admin role."
      },
      "supportsInterface(bytes4)": {
        "details": "See {IERC165-supportsInterface}."
      }
    },
    "version": 1
  },
  "userdoc": {
    "kind": "user",
    "methods": {},
    "version": 1
  }
}